:020000040000FA
:06000000020AED02020CF1
:03002B0002078F3A
:0300330002067F43
:030043000207B5FC
:0300530002014166
:03006B0002065931
:100083000201A0010105030101FF0F10FEFF012979
:1000930000000000992800000000FF000000FF009E
:1000A300010020FD000206FFFF060008D11B00002F
:1000B3000001A51EAB1E0000B11EB71E000000000C
:1000C30000000000000000000000000000001020FD
:1000D300202020202020202020202020202020013C
:1000E300080401000100056B800112810101010474
:1000F300000E1C000000E8030000FFFFDA1CE80309
:10010300000064006400B801A0BB0D00A0BB0D009B
:10011300020200F8FF070502070401051E02051E7F
:10012300020A0A0102080803B80B02803E0102FE1C
:10013300FFE8030A050001FFFF010A1401E0C0E024
:1001430074F1120423A2AFE433F509D2AF85A708F3
:10015300AFA1EF5508FE74105E600612187B75A1FF
:10016300EF74085E600812188175A1F78024EFA26E
:10017300E092F0E508A2E082F05017906198E0F871
:100183009008ABE0C398A2D265D0335002E8F07573
:10019300A1FEE509A2E092AF7F02020482C0E074EF
:1001A300F2120423A2AFE433FED2AF9061A4E0F8CD
:1001B300759B00E59158540860087591F71218C9AA
:1001C3008023E59158541060087591EF1218CF8081
:1001D30014E591A2E092F0E8A2E082F05007E0C2B9
:1001E300E0F0121A199061A3E0F8E5E958540460AD
:1001F3000E1219EF75E9FB906193E0A2E640F2EE6F
:10020300A2E092AF7F01020482C0E074F2120423E1
:10021300A2AFE433FED2AF9061A5E0F8E5BF585436
:1002230004600675BFFB121A3180D4C3E498F8E466
:1002330099F912026F8026C3E49AFAE49BFBE92042
:10024300E7E912026FE498F8E499F922C3E498F815
:10025300E499F912026FE498F8E499F9C3E49AFA7D
:10026300E49BFB22EB20E7CFE920E7E0B90010BBDA
:100273000008E88AF084F8AAF022E4FBC8FA22EB2B
:1002830070227B10C833C8C933C9335007C39AC31C
:10029300DBF280069A50012ADBEAC833F4C8C9337B
:1002A300F4C9FA2275F008E4C833C8C933C933C99D
:1002B3009AC99B5004C92AC93BD5F0ECFBC833F457
:1002C300C8E4C9FA22080808EAC0E0EBC0E086F0F7
:1002D300E7A4FA180986F0E7A42AFA180986F0E7D2
:1002E300A42AFA180986F0E7A42AFA1986F0E7A4E3
:1002F300FBE5F02AFA190886F0E7A42BFBE5F03AB0
:10030300FA190886F0E7A42BFBE5F03AFA18180966
:1003130086F0E7A4C5F02BFBE43AFA1908E7C5F029
:10032300C6A426F6E5F03BFBE43AFA1886F0E7A408
:10033300F6E5F00826F6E43B08F6E43A08F6D0E0E2
:10034300FBD0E0FA22E4CFC0E0E4CEC0E0E4CDC0CD
:10035300E0E4CCC0E075F020E626F608E633F608C4
:10036300E633F608E633F6181818EC33FCED33FDE4
:10037300EE33FEEF33FFC3EC9709ED9709EE9709D0
:10038300EF97191919400FFFEC97FC09ED97FD0939
:10039300EE97FE191906D5F0BFECF709EDF709EE54
:1003A300F709EFF7191919D0E0FCD0E0FDD0E0FE12
:1003B300D0E0FF222518C582C0E0E51934FFC583CC
:1003C300C0E0E518C3958224F810AF08858319852A
:1003D30082188008858319858218D2AFCEF0A3E5F1
:1003E30020F0A37808E608F0A3DEFAEFF0A3E58196
:1003F30024FAF8E608F0A3E608F0A3E608F0A30859
:1004030008E608F0A3E608F0A315811581D0E0FE05
:10041300D0E0F8158115811581E8C0E0EEC0E02237
:10042300C0D02518C582C0E0E51934FFC583C0E0FC
:10043300E518C3958224F310AF08858319858218C4
:100443008008858319858218D2AFC8F0A3E9F0A389
:10045300EAF0A3EBF0A37908E709F0A3D8FAECF0EC
:10046300A3EDF0A3EEF0A3EFF0A3D0E0F0A3D0E070
:10047300F0A3D0E0F0A3E520F0A3E5F0F0A32285FC
:100483001983851882E0C0E0A3E0F9A3E0FAA3E0B2
:10049300FBA37808E0F608A3DFFAE0FCA3E0FDA3E2
:1004A300E0FEA3E0FFA3E0C0E0A3E0C0E0A3E0F52B
:1004B300D0A3E0F520A3E0A3F5F010AF08858319DE
:1004C3008582188008858319858218D2AFD082D09F
:1004D30083D0E0F8D0E032120B7FB9000302051994
:1004E300E4900201787F791C8002F0A3D8FCD9FA4A
:1004F3007A7F7B1D90008678BC79018015E493A3F5
:10050300AD82AE838A828B83F0A3AA82AB838D8272
:100513008E83D8E9D9E77582137583B374051208FE
:10052300787582AB75832474001208780375F01014
:100533008E1A8F1B85821F85831E851882851983DA
:10054300E0CEA3E0CF851F82851E83EBC9EAC8ED09
:10055300CBECCAC3E833C8E933C9EA33CAEB33CBBC
:10056300C3EA9EF51DEB9FF51CB35004AB1CAA1DFB
:10057300EC33CCED33CDD5F0DAAE1AAF1B22D083FA
:10058300D082ECC0E0EDC0E0E493A3FCE493A3FDD0
:10059300ED4C600D12069DEC24FFFCED34FFFD8055
:1005A300EFE493A3FCE493A3FDED4C600D12073A33
:1005B300EC24FFFCED34FFFD80EFD0E0FDD0E0FC48
:1005C300E493A3C0E0E493C0E022D083D082E9C0E7
:1005D300E0E493A3C386F0C5F095F0F908E493A390
:1005E30086F0C5F095F0700BE493A3C3994005E939
:1005F300048002A3E475F002A42582F582E5F035B8
:1006030083F583D0E0F9E493A3C0E0E493C0E02250
:10061300851983851882E0A3FEE0A3F5207808E01E
:10062300A3F608DFFAE0A3FFE0A3C0E0E0A3C0E085
:10063300E0A3C0E0E0A3C0E0E0A3C0E010AF088502
:1006430082188583198008858218858319D2AFD0D3
:1006530083D08202087EC0E074F2120423A2AFE4C6
:1006630033FED2AFE589A2E15003121797758900D3
:10067300C2C5EEA2E092AF7F01020482C0E074F231
:10068300120423A2AFE433FED2AFE58BA2E0500302
:10069300121797758B00C2E880D8C0E0C3E4939625
:1006A300087401939618400FE49366700808740168
:1006B30093661870007019A3A3C3E493960874019A
:1006C300939618A3A3400DD0E0D0E0D0E00205BD7F
:1006D300A3A3A3A3A3A3D0E0227404800474028081
:1006E30000CCC0E0EDC0E0E518C39CCCAD195001CF
:1006F3001D10AF068C188D1980068C188D19D2AF7A
:100703001207FAD0E0FDD0E0FC2274028000CCC0D6
:10071300E0EDC0E0E518C39CCCAD1950011D10AF4E
:10072300068C188D1980068C188D19D2AF1207D834
:10073300D0E0FDD0E0FC22C0E0C0F088F0E4936696
:1007430070080874019366187000A8F0A3A3700BD7
:10075300D0F0D0E0D0E0D0E00205BDA3A3D0F0D02C
:10076300E022D083D082CCC0E0E493A360061208D9
:10077300591470FAE493A3600612094A1470FAD06C
:10078300E0FCE493A3C0E0E493C0E022C0E0C0D067
:10079300E8C0E0E9C0E0A9A8D2AFC2C7E9A2E7E494
:1007A30033F8E9A2E792AFD0E0F9D0E0F8D0D0D0A7
:1007B300E032C0E074F2120423A2AFE433FED2AFFE
:1007C300C2C0E5D1A2E45003121803EEA2E092AF37
:1007D3007F01020482CAC0E0E493A3C582CCC58230
:1007E300C583CDC583F0A3C582CCC582C583CDC5E2
:1007F30083DAE5D0E0CA22CAC0E0E0A3C582CCC553
:1008030082C583CDC583F0A3C582CCC582C583CD04
:10081300C583DAE6D0E0CA22700908080822601608
:10082300181818C6C333C608C633C608C633C60865
:10083300C633C6D5E0EA22C008C3E096F50808A38C
:10084300E096420808A3E096420808A3E09645080C
:100853007001D3D00822C0E0E493A3D39C5010E4EA
:1008630093A3C39C400AD0E0D0E0D0E0020782A368
:10087300A3A3D0E022C09FF59FE473D09F22D0832F
:10088300D082C09FE493C0E0740193C0E0740293EC
:10089300F59F227404800A74038006740280027434
:1008A30001C0E0F4041208B1D0E0120B2A2225188B
:1008B300F58210AF08F518400C15198008F518409B
:1008C300021519D2AF8519832200C0D0251810AFA5
:1008D30008F518500C05198008F51850020519D2AF
:1008E300AFD0D022BB0102E722C082C08389828AB3
:1008F30083BB0003E08002E493D083D0822260169E
:10090300080808C6C313C618C613C618C613C618E4
:10091300C613C6D5E0EA22C3E0C696F608A3E0C62E
:1009230096F608A3E0C696F608A3E0C696F6222537
:1009330018F8E43519F9222518FAE43519FB2225AC
:1009430018FCE43519FD22C0E0E493A36C7009D0D0
:10095300E0D0E0D0E0020782A3A3D0E02225181064
:10096300AF08F518400C15198008F5184002151941
:10097300D2AF22C3E09608A3E09608A3E09608A3AB
:10098300E096A2D265D03322E066701008A3E06639
:10099300700A08A3E066700408A3E06622E76670A5
:1009A300100809E766700A0809E76670040809E792
:1009B3006622C3E096F008A3E096F008A3E096F061
:1009C30008A3E096F022C3E697F60809E697F6082F
:1009D30009E697F60809E697F622C3E493960874A6
:1009E3000193960874029396087403939622E6275C
:1009F300F60809E637F60809E637F60809E637F692
:100A030022E026F608A3E036F608A3E036F608A3AC
:100A1300E036F622700422600D18C6C333C608C63A
:100A230033C6D5E0F41822E493F608740193F6086C
:100A3300740293F608740393F622E657F60809E660
:100A430057F60809E657F60809E657F622E056F680
:100A530008A3E056F608A3E056F608A3E056F622EC
:100A6300E647F60809E647F60809E647F60809E601
:100A730047F622E026F008A3E036F008A3E036F0BC
:100A830008A3E036F022E056F008A3E056F008A3EE
:100A9300E056F008A3E056F022E4C396F608E49685
:100AA300F608E496F608E496F622600D08C6A2E777
:100AB30013C618C613C6D5E0F322C6F4C608C6F497
:100AC300C608C6F4C608C6F4C622C3E7960809E7F3
:100AD300960809E7960809E79622C3E09608A3E07B
:100AE3009608A3E09608A3E0962275D00075813F8F
:100AF300751801751902000204DAE6F008A3E6F09E
:100B030008A3E6F008A3E6F022600C08C6C313C6E8
:100B130018C613C6D5E0F422E0F608A3E0F608A34E
:100B2300E0F608A3E0F622CAC0E0E6F0A308DAFA8A
:100B3300D0E0FA22E8F0A3E9F0A3EAF0A3EBF02275
:100B4300E0F8A3E0F9A3E0FAA3E0FB22ECF0A3EDC5
:100B5300F0A3EEF0A3EFF022E0FCA3E0FDA3E0FEA0
:100B6300A3E0FF22EAF0A3EBF0A3ECF0A3EDF02265
:100B7300E0FAA3E0FBA3E0FCA3E0FD22E5C754F801
:100B83004401F5C77901222518F582E43519F58367
:100B930022C2AF75D69F0200002212088152A3031E
:100BA3001208818EA30312088168A5031208812508
:100BB300A90312088139A90312088143A903120862
:100BC300814DA90312088157A90312088170A90353
:100BD3001208817AA903120881E7A903120881F296
:100BE300A9031208811AAA0312088125AA0312086D
:100BF300818AAA0312088195AA03120881B9AA035C
:100C0300120881DDAA031208814FAB0312088198F1
:100C1300AB03120881B4AB0312088125AC0312089D
:100C23008171AC03120881BAAC03120881F8AC03DA
:100C330012088179AD0312088120AE03120881EFF7
:100C4300AF0312088154B00312088182B103120862
:100C530081A8B103120881F0B2031208812AB603F6
:100C630012088128B803120881F3B9031208818C92
:100C7300BA031208818DBC0312088142BD03120816
:100C8300817BBD03120881E1BD03120881EBBD0323
:100C930012088114C00312088153C103120881AAE8
:100CA300C10312088155C20312088105C403120847
:100CB3008152C50312088172C503120881C7C50397
:100CC300120881C8C603120881F0C6031208814FB7
:100CD300C70312088147C803120881BEC80312085C
:100CE30081D1C9031208813FCA031208813ECB0395
:100CF30012088198CD03120881C1CD031208812700
:100D0300CF03120881A9D00312088100D10312086E
:100D130081AED10312088153D203120881ACD203EE
:100D23001208816AD303120881FCD3031208815B82
:100D3300D4031208819DD403120881CED403120870
:100D43008125D603120881008002120881328002B5
:100D53001208816B8002120881298202120881FF26
:100D630082021208815E83021208817484021208CF
:100D730081C084021208814E8702120881288A02E8
:100D83001208816F8B02120881078C0212088113EB
:100D93008C021208815C8C021208819E8D0212085B
:100DA30081948E02120881BE8E02120881148F0272
:100DB3001208816D8F02120881E08F0212088116DA
:100DC30092021208819893021208818394021208F6
:100DD30081CD9502120881059802120881029B02B7
:100DE300120881119B02120881A59B0212088150EF
:100DF3009C02120881939C02120881DC9C02120857
:100E0300812C9D02120881909D02120881029E028C
:100E13001208811E9E021208814D9E021208818CC7
:100E23009E02120881879F0212088136A0021208CF
:100E330081B3A202120881E5A302120881BDA402B4
:100E43001208813FA50212088174A902120881A326
:100E5300A902120881FEA90212088131AA0212080E
:100E630081A9AA02120881DCAA021208813DAB0201
:100E73001208818DAB021208815AAC021208811349
:100E8300AD02120881D7AD0212088151B0021208D7
:100E930081B3B10212088104B30212088128B4029B
:100EA3001208812BB4021208815AB402120881522B
:100EB300B60212088111B70212088140B702120864
:100EC300815EB80212088126B902120881E4BA02CF
:100ED30012088116BB0212088158BB0212088157FF
:100EE300BC02120881CABC02120881F3BE021208B6
:100EF3008152BF02120881A6BF02120881D5C10226
:100F0300120881B8C20212088174C30212088188D0
:100F1300C3021208819CC302120881C9C3021208CA
:100F230081F9C302120881B4C502120881C6C60240
:100F33001208811BC70212088164C7021208818B41
:100F4300C70212088153C802120881F9C8021208A5
:100F5300817FCA02120881C6CA0212088138CB02F5
:100F63001208818DCC0212088136CD021208816AE3
:100F7300CD0212088182CD0212088125CE02120809
:100F830081A1D00212088149D20212088167D202DC
:100F930012088185D20212088151D3021208819F5F
:100FA300D6021208811881011208815081011208AA
:100FB30081508601120881968601120881CC87012F
:100FC300120881318801120881A68901120881B0B3
:100FD3008C01120881D98D01120881EC9701120846
:100FE300817C9801120881669B01120881739C0120
:100FF300120881D69C011208811E9E011208818C61
:10100300A0011208811EA201120881ABA2011208DD
:1010130081CAA30112088157A40112088161A401A6
:1010230012088189A40112088129A50112088114DB
:10103300A601120881E1A601120881FEA601120889
:101043008127A70112088154A7011208819BA901D6
:101053001208816AAA01120881A9AA011208812B28
:10106300AB01120881CCAB01120881FEAB0112085F
:101073008145AC0112088178AC01120881BCAC0136
:101083001208810BAD0112088110AD011208816CA9
:10109300AD01120881B0AD011208818AAE011208B8
:1010A30081EFAE0112088155AF01120881D0AF0163
:1010B30012088138B3011208813BB401120881B9C7
:1010C300B501120881CFB80112088171B901120864
:1010D30081BABB0112088175BC01120881B4BC013D
:1010E3001208818CBE01120881A9BE01120881B2C7
:1010F300BE01120881BBBE01120881C6BE011208DF
:1011030081E5BE0112088189C001120881E6C00190
:10111300120881F0C001120881FAC0011208815936
:10112300C101120881A3C101120881A4C2011208DE
:1011330081FBC2011208810CC40112088155C4014C
:101143001208810FC50112088126C601120881FB0E
:10115300C60112088142C80112088146C90112085A
:10116300813FCA0112088157CA011208818ECA0140
:1011730012088198CA01120881A3CA01120881C109
:10118300CA0112088109CB0112088167CB01120839
:10119300818ECB01120881A0CB0112088155CC01AD
:1011A3001208818ECC01120881B0CD01120881038F
:1011B300CE01120881E9CE0112088110CF01120875
:1011C3008180CF01120881FCCF0112088158D1011F
:1011D3001208817FD20112088141D3011208810FC5
:1011E300D401120881CDD401120881B5D5011208AA
:1011F300815FD601120881C7D6011208817CD7010D
:10120300120881D8D70112088130D801120881F65B
:10121300D80112088119D901120881D4D901120801
:1012230081F6D90112088157DA0112088187DC019E
:1012330012088180DD011208812CDE011208814D24
:10124300E00112088196E001120881E1E001120831
:10125300813DE1011208819BE101120881BFE10197
:10126300120881E3E10112088118E20112088140AA
:10127300E20112088185E201120881D9E201120814
:101283008132E3011208812CE401120881CAE501CD
:101293001208810FE60112088138E601120881C1A4
:1012A300E60112088134E70112088142E7011208BE
:1012B3008166E701120881BCE701120881D7E701C3
:1012C30012088192E801120881BEE8011208810127
:1012D300E90112088164E90112088172EB01120825
:1012E300819EEB0112088159EC011208813DED0149
:1012F300120881D1ED0112088197F303120881CFFF
:10130300F303120881F0F30312088132F403120885
:101313008196F403120881A0F403120881B0F40348
:10132300120881E7F40312088190F8031208815828
:10133300FA031208813CFC03120881DEFC03120845
:101343008168FD03120881062D00120881AF2D006C
:101353001208818E2E001208819A2F00120881BA7A
:101363002F00120881DC30001208818C3200120831
:1013730081F93200120881CA3300120881D0340087
:10138300120881483500120881833500120881DC78
:1013930035001208811736001208816036001208E2
:1013A30081F436001208818A37001208815F380001
:1013B300120881323900120881C03900120881E60F
:1013C3003900120881133A00120881443A001208C6
:1013D30081113B00120881213B00120881743B00FC
:1013E300120881813B001208818E3B00120881970D
:1013F3003B00120881FB3B00120881593C00120894
:1014030081A43C00120881BF3C00120881E63C0025
:10141300120881033D001208810F3D00120881A0CC
:101423003E00120881B93E00120881353F001208C0
:1014330081483F00120881583F00120881FC3F0099
:101443001208816841001208817B42001208811B47
:101453004300120881254300120881A443001208A7
:1014630081B54300120881F443001208812244002D
:10147300120881EF44001208814645001208817F5B
:101483004500120881D54500120881F34500120872
:10149300814146001208810C47001208815A470017
:1014A300120881A747001208812A480012088154B4
:1014B30048001208818A48001208819948001208DE
:1014C30081F84800120881704900120881B149006F
:1014D300120881014A001208812C4A001208814631
:1014E3004A00120881604A00120881354B00120835
:1014F300813F4B001208817A4B001208818A4B000E
:10150300120881DB4B00120881EF4B001208811196
:101513004D00120881264D00120881B94D001208B2
:10152300812D4E00120881D24E00120881DD4E003B
:101533001208814050001208815C5000120881A8F3
:1015430050001208811651001208814851001208F8
:1015530081625100120881C2510012088161520058
:10156300120881AC5200120881FF540012088197BF
:1015730055001208810E56001208816B580012089C
:1015830081835800120881865800120881925800FE
:10159300120881A65800120881AE5800120881E58E
:1015A3005800120881D95900120881635A001208A1
:1015B30081E55A00120881655B001208813C5C00DA
:1015C3001208815E5C00120881F75C0012088154E6
:1015D3005D00120881575D00120881C65D00120884
:1015E30081125F00120881256000120881B060003B
:1015F300120881C361001208818A6200120881BB4C
:101603006200120881E16200120881EA6200120896
:1016130081196300120881C963001208817964008B
:10162300120881EC64001208818F650012088102A0
:1016330066001208814166001208818A660012085A
:1016430081D5F30212088142F4021208818EF4025A
:10165300120881E0F40212088160F5021208815D2C
:10166300F70212088170F902120881A9FC0212081C
:1016730081D8FC02120881F6FC0212088160FD0287
:1016830012088188FD02120881BBFD02120881F055
:10169300FD0212088152FE0212088112D9041208B7
:1016A300818ED904120881BCD90412088101DA049D
:1016B30012088162DB041208817EDB04120881B404
:1016C300DB041208812DDC041208817BDC04120880
:1016D300810BDD04120881E3DD0412088134DE048A
:1016E30012088199DE041208810CDF04120881506C
:1016F300DF04120881A8DF04120881CADF0412087C
:10170300815AE004120881EBE00412088123E1040A
:101713001208814CE1041208818DE1041208812E24
:10172300E30412088110E404120881ECE4041208B3
:10173300813CBC051208814DBC05120881EBBC0538
:10174300120881FD7F001208817AC00512088153B7
:10175300BE0512088163BE05120881529B0312085D
:1017630081E6BE0512088139BA05120881BDBA05A2
:1017730012088123BB0512088117FE031208813961
:10178300FE031208819FFE03120881BEFE031208A6
:101793008106FF031208815FFF031208810AB9055E
:1017A3001208811FB90512088193B905120881AD8A
:1017B300B905120881C4B905120881D7B905120801
:1017C30081EFB905120881CEA203120881C8A105D1
:1017D300120881D6A1051208814FA205120881249F
:1017E300A305120881F6A40512088116C005120884
:1017F300812EAE051208819BAE0512088108B00543
:101803001208816FB005120881CAB005120881D889
:10181300B0051208810080051208812C800512088A
:1018230081C282051208810283051208813E830565
:101833001208815283051208816B83051208815CAB
:1018430084051208810E8505120881228505120878
:101853008105B50512088129B50512088142B50530
:1018630012088180B505120881B6B505120881E911
:10187300B50512088155B60512088158B605120838
:101883008162B6051208816FB60512088182AB0525
:10189300120881A5AB05120881F0AB051208810E71
:1018A300AC0512088129AC051208818FAC0512081A
:1018B300819BAC05120881F8AC051208811CAD05AB
:1018C300120881E2AD05120881EFAD05120881000F
:1018D300AE051208816AFF0112088182FF01120816
:1018E30081AEFF011208817E8505120881E286051B
:1018F300120881F0860512088104870512088121E8
:101903008705120881368705120881498705120861
:1019130081CB8705120881308805120881C68805A6
:101923001208819F8905120881AF8905120881BEBB
:101933008905120881BABD05120881DEBD051208AA
:101943008106BE051208812EBE05120881E2B0058C
:1019530012088109B10512088127B1051208819C7B
:10196300B105120881B0A805120881C9A80512089B
:1019730081E0A805120881E9A80512088107A905D5
:1019830012088111A9051208811BA9051208812ECD
:10199300A905120881B4A90512088129AA0512080C
:1019A3008157AA05120881A8AA05120881F4AA057D
:1019B3001208810FAB0512088119AB051208812AA1
:1019C300AB051208816DAB05120881A6FF0312084F
:1019D30081C6E504120881F2E50412088115E604C4
:1019E30012088128E60412088143E604120881A73D
:1019F300E604120881D5E604120881E5EA04120818
:101A0300813AEC041208816CEC04120881D7EC04CF
:101A13001208813EEE0412088166EE041208817BEF
:101A2300EE041208818BEE04120881CBEE04120837
:101A3300810DEF041208811DEF0412088179B605A8
:101A430012088189B605120881ADB605120881D640
:101A5300B60512088100B70512088124B7051208DC
:101A6300813BB70512088169B7051208818CB70558
:101A73001208818EBF05120881889A051208819881
:101A83009A05120881B69B05120881EA9B05120884
:101A9300810C9C05120881349C051208814D9C051C
:101AA300120881899C05120881EB9C05120881307C
:101AB3009D05120881759D05120881A29D051208D6
:101AC30081DA9D051208819DFE02120881BDFE0286
:101AD300120881D0FF02120881D3FF021208810588
:101AE300BD051208813BBD0512088157BD051208CB
:101AF3008199BD05120881A9BD051208814DEF0426
:101B030012088187EF04120881F0EF041208810F95
:101B1300F004120881B1F004120881BAF00412082B
:101B2300810BF10412088134F10412088141F1049C
:101B3300120881B2F10412088140F2041208818E66
:101B4300F204120881C4F20412088125F304120876
:101B5300814DF304120881C4F30412088120F404B4
:101B630012088163F404120881A0F404120881B2FC
:101B7300F404120881C4F404120881E3F404120883
:101B830081ECF404120881BAF50412088106F60404
:101B930012088144F604120881C4B7051208819320
:101BA300FD04120881C9FD0412088118FE041208FD
:101BB3008171FF04120881E4C40412088115C6046C
:101BC30012088151C6041208810BC804120881351A
:101BD300C804120881AECA04120881EECA041208AE
:101BE3008183CC0412088122CD041208817ACD04AA
:101BF30012088100CE0412088138CE041208817ABB
:101C0300CE04120881EBCF041208816BD1041208B1
:101C130081ACD304120881DAD30412088106D404F8
:101C23001208810FD40412088165D404120881F5C7
:101C3300D40412088133D804120881B5D8041208D9
:101C430081D8FF04120881EEFF04120881F0BE055B
:101C5300120881E37B00120881F87B00120881AB34
:101C63007C00120881EB7C00120881047D001208BD
:101C730081377D00120881847D00120881B87D00C0
:101C8300120881FA7D00120881F07F001208813C5E
:101C9300BB051208819BBB05120881D9BB0512083D
:101CA300811ABC051208810080041208810C80048B
:101CB3001208816E80041208817880041208810B57
:101CC30081041208814781041208810282041208E8
:101CD300811582041208817C82041208810C83041A
:101CE300120881508304120881D083041208818171
:101CF3008504120881518704120881B988041208E7
:101D0300815B8904120881F28D04120881F18E042B
:101D13001208817E8F04120881A38F041208813D6B
:101D230090041208815B90041208817890041208D1
:101D330081EC900412088108910412088135910402
:101D4300120881B69204120881D7920412088158AE
:101D53009304120881FE9304120881459404120827
:101D630081B594041208814F9504120881C7950424
:101D7300120881329604120881D196041208813E1A
:101D83009704120881799704120881DC97041208DA
:101D930081339904120881C699041208817D9A043B
:101DA300120881019C041208819A9C041208810C78
:101DB3009D04120881099F04120881B5A00412082A
:101DC30081E2A004120881C4A204120881B3A4040E
:101DD300120881B9A504120881DE96051208815004
:101DE30097051208815E97051208816F98051208FE
:101DF3008181D60312088121D703120881A2D70358
:101E0300120881A0D8031208811FD9031208816424
:101E1300DA0312088104DB03120881B3DC0312081E
:101E230081BFDD03120881DCDD031208810CDF03AF
:101E330012088128E003120881D2E00312088116F8
:101E4300E40312088123E603120881ABE6031208B8
:101E53008105E70312088158E703120881CDE703E0
:101E630012088155E8031208818DE8031208816C7A
:101E7300EF03120881C6F103120881A2F2031208CC
:101E830081D2BF051208812E9E05120881909E05FE
:101E9300120881A09F05120881CFA005120881E8CE
:101EA300A00512088127A10512088167A105120860
:101EB3008181A10512088184A105120881BDD60282
:101EC30012088115D702120881A5D7021208811EB4
:101ED300D902120881FED902120881BBDA02120864
:101EE30081D2DA0212088123DB0212088197DB0216
:101EF300120881E3DB02120881F6DB021208814F2C
:101F0300DC0212088167DC0212088128DF02120852
:101F130081BEDF02120881F5DF021208813EE00272
:101F230012088144E20212088194E2021208816ECF
:101F3300E302120881A7E302120881C6E302120832
:101F43008111E40212088131E402120881E8E402FB
:101F5300120881E1E5021208813CE6021208817C45
:101F6300E602120881B3E7021208812FEA0212087F
:101F73008162EA021208810CEB0212088131EB0242
:101F8300120881B5EB0212088194EC02120881D287
:101F9300EC0212088136ED02120881EAED02120802
:101FA30081EDED02120881F7ED0212088101EE02C4
:101FB3001208811DEE021208818FEE02120881C8F9
:101FC300EE02120881E4EE0212088111EF021208F8
:101FD3008138EF021208815CEF0212088197EF0249
:101FE3001208810AF0021208813EF0021208817F72
:101FF300F002120881B4F002120881D4F002120830
:102003008111F10212088148F1021208814BF20298
:1020130012088183F302120881A2F302120881409D
:10202300BF0512088158BF05120881EF8905120800
:10203300812D8A05120881C68A05120881D18B0574
:10204300120881198E0512088170F604120881BFE7
:10205300F6041208817DF80412088138FA04120884
:102063008176FA041208816BFB0412088176FC0462
:1020730012088198FC04120881E2FC0412088163AF
:10208300FD04120881BF6600120881E2660012088F
:1020930081E567001208813768001208819968009A
:1020A300120881EB68001208813369001208819CD1
:1020B3006900120881216A001208819D6A001208D2
:1020C30081E36A00120881E86E001208814C7100F6
:1020D300120881FE71001208815E72001208818667
:1020E30072001208814C740012088168760012088D
:1020F30081547700120881DB77001208811279007E
:10210300120881437A00120881827A00120881360C
:102113007B0012088192EE0112088132EF0112084E
:10212300819FEF011208815EF001120881BDF00169
:102133001208816BF1011208812EF4011208814605
:10214300F501120881BCF5011208819EF7011208FE
:102153008140F801120881AFF80112088132FA01B7
:1021630012088171FB011208817FFC011208810CA6
:10217300FD011208812CFE01120881B2A904120884
:10218300811DAA0412088165AA04120881A9AA0460
:1021930012088104AB0412088161AB041208819C0C
:1021A300AB0412088120AC041208817AAC04120833
:1021B30081E9AD0412088161AE0412088179AF048C
:1021C300120881A1AF04120881ADB004120881BEC8
:1021D300B004120881D6B004120881FFB1041208BA
:1021E3008122B204120881FBB2041208811FB304D6
:1021F30012088136B30412088157B3041208817997
:10220300B30412088153B404120881ADB404120854
:102213008127B6041208817FB6041208819EB60492
:10222300120881F0B7041208816FB804120881A65E
:10223300B804120881E0B8041208814CB9041208EA
:10224300810BBA04120881E9BB04120881E9BC04BA
:10225300120881F4BD0412088106BF041208812EFE
:10226300C0041208813CC00412088141C104120851
:1022730081E3C10412088129C2041208813EC20409
:1022830012088146C304120881E7C304120881437C
:10229300C4041208815BA50512088116A70512085C
:1022A30081D5A7051208812AA80512088104930580
:1022B3001208812293051208816693051208818C06
:1022C3009305120881B39305120881CB9305120875
:1022D30081E39305120881FB93051208819E9405FF
:1022E300120881E094051208810296051208810BF9
:1022F30096051208811496051208811D9605120889
:1023030081279605120881968E051208818A920507
:102313001208819892051208819D920512088192F4
:10232300B3051208814EC005120881BB9A03120837
:1023330081499A03120881389A0312088154990338
:10234300120881709803120881869503120881434D
:102353009403120881AA910312088165910312085C
:10236300810B91031208816C90031208811790036B
:10237300120881448F031208817E8E031208814262
:102383008E03120881D58D03120881CD8D031208A7
:1023930081428D03120881D28C03120881238C039E
:1023A300120881188C03120881098C03120881E832
:1023B3008B03120881B48B03120881A0A1031208B6
:1023C30081888B0312088190A1031208816EA003F8
:1023D3001208818C9E03120881839E031208817662
:1023E3009E03120881799D03120881069D0312083A
:1023F30081EA9C031208815A8A031208814E8803DA
:102403001208811F8803120881038803120881CCF4
:102413009C03120881AD8703120881748703120895
:1024230081EC8603120881A08603120881A79C030E
:1024330012088159860312088104BA051208818C97
:10244300850312088110850312088168840312082A
:1024530081C18303120881638303120881388303D4
:10246300120881E98203120881AB82031208818971
:1024730082031208816682031208814D82031208C7
:10248300810582031208814F8103120881C38003EF
:10249300120881B79B031208815780031208810039
:1024A30080031208817EBE0500000080FBE47300F8
:1024B30000030020011481000000002001168100A8
:1024C30000040042013880000005004201498000F9
:1024D30000060042015A8000000700200117810016
:1024E3000010004203CA1D000011002003E01B007E
:1024F3000012001003DB1D030000002103E11B0693
:102503000000001001E31B050B0000210100000582
:102513000B010021010000050B0001230100000550
:102523000B010123010000050B020123010000053B
:102533000B030123010000050B0401210100000529
:102543000B050121010000050B0601210100000517
:102553000B070121010000050B0801210100000503
:102563000B090121010000050B0A012101000005EF
:102573000B0B0121010000050B0C012101000005DB
:102583000B0D0121010000050B0E012101000005C7
:102593000B0F0121010000050B10012101000005B3
:1025A3000B110121010000050B120121010000059F
:1025B3000B130121010000050B140121010000058B
:1025C3000B150121010000050B1601210100000577
:1025D3000B170121010000050B1801210100000563
:1025E3000B190121010000050B1A0121010000054F
:1025F3000B1B0121010000050B1C0120010000053C
:102603000B1D01280100008F000100751D870001CB
:1026130000351E35000400FA1D25000200FE1D26AC
:10262300000200001E27000200021E280001000C09
:102633001E290001000D1E840004000E1E860001E9
:1026430000121E2A000100131E2B000100141E2C71
:10265300000100181E2D0008005C1D2E000100194A
:102663001E2F0001001A1E300001001B1E31000145
:10267300001C1E32000100641D33000100651D347F
:102683000001001D1E36000100661D380001001EFA
:102693001E39000100171E83000200331E63000170
:1026A30000721D64000100151E65000100161E6DF9
:1026B300000100731D71000800541D660001003203
:1026C3001E43000100231E44000200241E45000196
:1026D30000261E46000200271E470008006A1D4808
:1026E300000100291E4B0001002A1E0400010036D0
:1026F3001EA1000100391E37000100381E880001A9
:1027030000371E3C000100671D3D0001001F1E49EC
:102713000002002B1E67000100741D4D0002002DF6
:102723001E4E0001002F1E4F000200301E3E00010E
:1027330000691D51000100201E52000100211E539B
:10274300000100221E54000100681D00000000006B
:1027530000000136360101000102010001030100FE
:102763000104010606050200000701003408010008
:102773000F090401010D0100FF0E080000170200FC
:1027830000190100FF1A0100011B0100FE1C0100DA
:10279300081D0200001F01000120010001210200A9
:1027A300002301000F24020000260100012701007D
:1027B30008280200FF2A0100072B0102402C010018
:1027C300002D0100012E0100012F0100FF30010B3C
:1027D3001D310800003A0100083B01000F3C0100D5
:1027E300013D0100FF3E04000042040000460400D6
:1027F300004A0400004E0400005204000056040086
:10280300005A040000000021010001002102000021
:10281300012366000101236700020123680003010D
:102823002369000401216A000501216B00060121CF
:102833002C010701212D010801212E010901212F5E
:10284300010A012130010B012131010C0121C800D2
:102853000D0121C9000E0121CA000F0121CB001077
:102863000121CC00110121CD00120121CE00130161
:102873002132011401213301150121CF0016012159
:102883003401170121D000180121D100190121D2EF
:10289300001A0121D30001037103010301030103A2
:1028A30001030103220302030103100300030003D6
:1028B3000003000300030003000342030003240397
:1028C3000603000300030403120325032303250364
:1028D300230304030403000300030003440300036E
:1028E3000003230300036503210035038103000371
:1028F3000503000300030003000325032303030070
:102903007100300160001100700031022003500497
:102913008000100061000000140063007300720067
:1029230062004300000013000600000000000400E2
:102933001200000000000000000004000400370043
:1029430037003C0244000000000000000000650066
:102953000000350081000000050000008300000036
:1029630001017101010101011101010131010101A4
:1029730001018001100161013B0014006301730137
:102983007201620143010001130106013D0135009B
:10299300040112010001000100010001040104010E
:1029A300330133013C0144013201360000010001CF
:1029B30065010001350081010001050182018301E8
:1029C3000001030271023001600211027002010270
:1029D300020202028002100261023A004100630215
:1029E3007302720262024302000213023800000201
:1029F30000020402120200020002000200020402AA
:102A03000402370037003C0244020002390000028E
:102A13000002650200023502810200020502820201
:102A230083020002030471040204600411047004AD
:102A330002040204010402041004610400041404E7
:102A4300630473047204620443040004130406045D
:102A5300000400040404120400040004000400043D
:102A6300510464000004000400044404000400044E
:102A730000040004650400043504810464000504B3
:102A830000048304000436000100060000000F0068
:102A930000000000000000000000000003FFFF0032
:102AA300000403FFFF0000FFFF0FF4010005C4044F
:102AB3000320000100000B000000000000000003E1
:102AC300010F0000000000000000000000000000F3
:102AD30000000000000000000000000000000000F3
:102AE30000000000851DC11D8B1DC51C911DC71D48
:102AF300911DD31D971DC51C911DC71D9D1DC51C73
:102B0300A31DC51CA91DC51CAF1DC51CB51DC51C1A
:102B1300BB1DC51C000000000000000000000000F9
:102B230000000000000000000000000000000000A2
:102B33000000000000000000000000000000000092
:102B43000A0000000200000004000000080000006A
:102B53001000000020000000400000008000000082
:102B63000001000000020000000400000008000053
:102B7300001000000020000000400000000033218E
:102B83001300DF201F00E5201F80EB20010033210D
:102B93000200A3200300A9200400AF200500B520F4
:102BA3000600C1203600D320FFFF000001E10F061D
:102BB3000B100805100B231010F90C02E70F05F991
:102BC3000F07ED0F0CC90F0DD50F646723FF00002E
:102BD30007ECFDFDFDECDCDCCCBCACAC9C9C8C7C44
:102BE3007C6C6C5C5C5C4C4C3C3C2C2C1C1C03EAED
:102BF300F5E5D5D5C5B5A5959585857575656555F2
:102C03005545453535252515150500160F00000BCF
:102C1300150B020002220F3300000E010305070902
:102C23000B0D0F00020406080A0C0D5A6967426572
:102C330065416C6C69616E63653039303017181902
:102C430021301B1D1F3000034A49434E181A250526
:102C53000200393D3F373C3C362C442D30301618AA
:102C63001920231A1C1E30000119161816161823D2
:102C730003000C0E020B040B0A0708000F020402E8
:102C830001010101090200BE040AE80300007F00FC
:102C93000000E8030E000000030809000A0C28FFE7
:102CA3001E1E0C0508090404001003010C05082B63
:102CB300150410E004123536A2E792AF22E4F0A324
:102CC300F0A3F022A3122CC0A3F0227F0C02061360
:102CD300E0F508E4F509F50AF50B227401F0900814
:102CE300C3E0640F2274091208CC7F04020613A305
:102CF300A3E024F5C39413229008E31258267A1410
:102D03007B0022C082C08390031174A7F0A37413C5
:102D1300F0A374B9F0A37413F0900315748FF0A3A8
:102D23007413F0A37489F0A37413F0A374C5F0A310
:102D33007413F0A374CBF0A37413F0A374BFF0A3C4
:102D43007413F0A37477F0A37413F0900321749BAE
:102D5300F0A37413F0A374A1F0A37413F0A37495F8
:102D6300F0A37413F0A374D1F0A37413F09003329F
:102D7300124DB3600612501D121BB190032F124463
:102D8300DF7408F0A3E4F0A3F09003D2F0900334CF
:102D9300F07C0BFDF97A357B03121B097C0B7D005C
:102DA30079007A407B03121B090244E874F712038B
:102DB300B774F7120960EAFEEBFF124306740512BB
:102DC3002E7C7403F0EE2402FAE43F122E56242DD7
:102DD300FCE43FFD8C828D83122F94122E656008D4
:102DE3001236DE74FFF0A3F0EE242BE43F1C1CFD2F
:102DF3008C828D83A3E0C0E08A828B83124317D039
:102E0300E0122E6588828983124B0F24031255F03A
:102E1300121CA17408120B8A7403F09008D81206CE
:102E2300E074021209427903EEFAEFFB12156374A0
:102E3300021208CCE9F5087007EEFAEFFB12144909
:102E4300A90874090236EEF582E43FF58312625B4A
:102E5300124B04FB8A828B83122E74E8F0A3E9F0F1
:102E6300EE22125844122E74E8F0A3E9125DC0E07A
:102E730022122F5F8A828B8322F0A3E4F0122E8426
:102E830022EE240DF582E43FF5832274F11203B799
:102E9300EAFEEBFF8C088D09890A122F698A828B5F
:102EA30083122F5F740F120B8A122F82E824FF18EC
:102EB300E934FFF988828983E50A122F749008DDCB
:102EC300122F719008DC122F717411120B8A122FBA
:102ED30082EE2404FCE43FFD880B8A828B83E0F5B9
:102EE3000C8C828D83E0250CC3950B125840E8F0BF
:102EF300A3E9124273A3A3A3A3A3A3A3A3E064031D
:102F030070081245CFF0A3E48003123275122E7FAE
:102F13007409F0750C35750D03750E00780C1208E5
:102F23009A123269121AFD74031208CC750CFF75DC
:102F33000DFF780C12089EAC08AD097903EEFAEF89
:102F4300FB12156374021208CCE9F5087007EEFA58
:102F5300EFFB121449A9087F07020613E024FFF8C8
:102F6300A3E034FFF922EE2402FAE43FFB22122FFE
:102F730094122F7822F0E824FF18E934FFF922E0B5
:102F8300F50CA3122F94122F7888828983E50CF015
:102F930022E08882898322C082C083900351E0C3E8
:102FA3009408400474078001E08A828B83F03333F2
:102FB3003354F8F90244E874F01203B7EAFEEBFF66
:102FC300890C8C0E8D0F750A00A2AFE433F50BC28A
:102FD300AF90034B803F1230A250371230B36403DB
:102FE3007030EE24F9FEEF34FFFF850882850983F4
:102FF300A3A3E02405FCA3E03400FDEEFAEFFB12EB
:103003001CA1EE24FF1EEF34FFFF7410250AF50AFE
:10301300150C124240126257E50C6006E50845099B
:1030230070B4E50BA2E092AFA2AFE433F50BC2AFED
:1030330090034B802C2402FAE43509FB8A828B83AC
:1030430012582F2406F582E438F5831230C08A82A1
:103053008B831230A8A3A31230C0050A150C1242A9
:103063004012425560221230B3640270F11230A252
:10307300E50840C11233A3A2E550E3850E82850F14
:10308300837401F0E50C70D6E50BA2E092AF8E825B
:103093008F83E50AF0EE24FFFAEF34FFFB8035124D
:1030A30033AEA2E6221230AC22125C24A3A3A322E5
:1030B300850882850983125C1E12525822E08E8293
:1030C3008F83F0EE24FF1EEF34FFFF2212162F74BE
:1030D300041208CC7F0802061374EC1203B774F5CC
:1030E30012096089138A128B0F851882851983E46C
:1030F300F00412093A121359E9F89008C2E029249E
:1031030034F508FA7B00121B1B8A0A8B0BAE0AAF3D
:103113000BEE4F700302325DEE2402F50AE43FF535
:103123000BA808EE28F8E43FF9850A82850B831281
:103133002E5E2404F510E43FF511851082F583E437
:10314300F09008C2E0FCF8C3E498F895E0F9850A2A
:1031530082850B83E028F508A3E039F5099008C0C0
:103163001254E8750E00780C12089A7D00AA08AB79
:1031730009121AFD74031208CCAC18AD19740112AC
:103183000B8AE0F9E50824FFFAE50934FFFB121383
:103193005F8A828B83E4F0EA24FFF508EB34FFF5C2
:1031A30009E50FC454F0F99003D3E0C4333354C09A
:1031B300F89008BCE0A2E0E43313134849440F122B
:1031C300327DE512C454F04513850882850983F0E6
:1031D300A808850A82850B83E0FA8510828511830E
:1031E300E02AC398F0850A82850B83E8F0A3E509FA
:1031F300F0123275122E7FE4F0740A120B8AE4F097
:10320300750840750903F50A780812089A1232699D
:10321300121AFD74031208CC851882851983E060A5
:1032230009EE240E12439C4408F012154BE9F9E40D
:10323300F508F509780812089E7404120942EEFA9B
:10324300EFFB12156374021208CCE97006EEFAEF75
:10325300FB800BEEFAEFFB121B217A007B00740B51
:103263001208CC022CCE7C0B7D00EE2418FAE43F2E
:10327300FB2212430AE4F0A322E085088285098336
:1032830012328722F01254BC2274F31203B78A0A53
:103293008B0BA2AFE433F50CC2AF750800750900C0
:1032A30090034B802C1234CA5024850A82850B83E9
:1032B300A3A31266848E828F83A3A31250201215B8
:1032C30051E9600A1232F0C2E6F08E088F09123417
:1032D300BF12377870CFE508450960061233AAD2CA
:1032E300E6F0E50CA2E092AF7F050206131232F47A
:1032F300221254D5E02274F01203B7EAFEEBFF8CDE
:103303000C8D0D750E00A2AFE433F50FC2AF750837
:103313000075090090034B8020850A08850B09126C
:1033230033AAD2E4F0E5081233A3D2E7F0E50A2486
:10333300FBF582E50B34FFF583E0F50AA3E0F50B1B
:10334300E50A450B6043E50A12412B350BF583E093
:10335300A2E750D9850A82850B83A3A31206E0ACAA
:103363000CAD0DEEFAEFFB12155774021208CCE9FF
:1033730060BBE508450960A1E508240D1233B66476
:103383000170061233BFD2E4F0E50FA2E092AFE57D
:103393000845096006121443750E01A90E0230D7C1
:1033A3001241551233B9221233AE22E50824111209
:1033B30033B622F582E43509F583E0228508828558
:1033C3000983125C1EE02274F21203B774FE120921
:1033D30060750C00750D00851882851983E4F0A3D0
:1033E300F0A2AF33F50AC2AF90034BE0FEA3E0FFB8
:1033F3008035EE24FBF582EF34FF126255780C1210
:10340300089EEEFCEFFD7A4B7B03121B51740212F4
:1034130008CCEEFCEFFDAA18AB19121B3FAE08AFA8
:1034230009900351E014F0EE4F60271234CA501D87
:10343300EE240BF8E43FF988828983E024FFF0A3AC
:10344300E034FFF088828983124DB360A51234BB48
:103453008099E50AA2E092AF900351E060319008B1
:10346300C3E0640F60069003D2E070237A297B03E4
:1034730012163B9080EE1206DC7A297B0312162F7C
:1034830074041208CC800874F0124706121437AA89
:1034930018AB19121B458A0A8B0BAE0AAF0BEE4F02
:1034A300601312136B1232F0A2E28E828F83A35049
:1034B300D674E980D40237808E0C8F0DEE24FBF591
:1034C30082EF34FFF583221232F4A2E72274F7125B
:1034D30003B7EAFEEBFF12136B1243141224B0E995
:1034E30064019008DF700AE02401F8A3E03400804F
:1034F30004E0F8A3E0F9124962124D0B900351E086
:1035030070219008C3E0640F70197A297B031216A7
:103513003B9080EE1206DC7A297B0312162F74048B
:103523001208CCA9A8C2AF900351E004123536A209
:10353300E7800DF0E9A2E7E433F8E922E508A2E029
:1035430092AF0247A274F71203B7EAFEEBFF1235FC
:103553007DF012136BEEFCEFFD7A4B7B03121B4BDA
:10356300A9A8C2AF900351122CB69008C3E0640F10
:10357300700579081215030247A21232F4C2E4223D
:1035830074F71203B774EA120960EAFEEBFF9008BE
:10359300BCE060408518828519837401F0120B8AA0
:1035A300E4123655120B8AAA82AB83121CA18E82B7
:1035B3008F831233C5C0E0740A120B8AD0E012580D
:1035C30055740B120B8AAA82AB8312157BAA18AB14
:1035D3001912230774160236EE74F71203B7EAFEC4
:1035E300EBFF12134DE9F974DC69601E74DD696049
:1035F3001974E469601474F369600F74DE69600A16
:1036030074DF69600574DB697007EEFAEFFB12156E
:10361300090247A274F71203B774EB120960EAFEBA
:10362300EBFF8518828519837406123655120B8AAF
:10363300AA82AB83121CA112585A740A120B8AAACB
:1036430082AB8312157BAA18AB19122307741502D8
:1036530036EEF0EE2413FCE43FFD74022274F712FD
:1036630003B774F7120960EAFEEBFFEE242D124351
:103673009C6065123F2DAA18AB19121CA174081285
:103683000B8A7403F09008D81206E01236DE120695
:10369300E09008EBE0F97404120942EEFAEFFB1232
:1036A300135374041208CCE9F974DC69602374DDE4
:1036B30069601E74E469601974F369601474DE69E7
:1036C300600F74DF69600A74E869600574DB697010
:1036D30007EEFAEFFB121509022E45EE1236E3222E
:1036E300242BF582E43FF5832274031208CC0247AE
:1036F300A274F21203B78A088B09750C00750D00CA
:10370300750AE7A2AFE433F50BC2AF90034B800316
:103713001234BB12377860351234CA50F31243990E
:10372300640170ECEE242FF582E43F123927E06840
:1037330070DE780C12089EEEFCEFFD7A4B7B0312D1
:103743001B5174021208CC900351E014F0E50BA254
:10375300E092AFEE4F6013EEFAEFFB12136B79F0CA
:10376300EEFAEFFB121509750A00A90AAA08AB09BC
:10377300121509800DE0FEA3E0FFEE4F2274021242
:1037830008CC7F0602061374F41203B774F7120908
:1037930060EAFEEBFF8E828F83A3E064F370030283
:1037A30038348E828F83A3E064DF70030238348E53
:1037B300828F83A3E064E860788E828F83A3E064C2
:1037C300DB606E1213ADE9F508705EEE240E124352
:1037D3009C605612383E1213F5EA4B604C74081283
:1037E3000B8A1238481206E07508FF7509FF78083E
:1037F30012089E8E828F83A3A3A3A3A3A3A3A3E0F4
:10380300F9740412094212135374041208CCE9F533
:103813000874F36508601274DF6508600C74E8656A
:1038230008600674DB6508700F8E828F83A3E5083A
:10383300F0EEFAEFFB1213B9022CE8EE240FFAE4D0
:103843003FFB790922740212601D74FFF0A3123842
:10385300552212385922124B18A3A32274F51203CE
:10386300B78A088B097E008A828B83A3A3A3A3A3B1
:10387300A3122CF240027EE88A828B83A3A3A3A324
:10388300A3A3A3A3A3A3E0C3941040047EE88013DF
:103893008A828B83A3A3A3A3A3A3A3A3A3A3E06469
:1038A3000F600A9003AFE0540870027EE8EA240B2D
:1038B300F582E43509123927A3A3A3A3A3A3A3A3E2
:1038C300E0C398500CEA240B1233B6640F60027EF7
:1038D300E89008DCE0F47003A3E0F470027EEC7A75
:1038E300237B00121BAB9003321250309003321231
:1038F3004DB36029850882850983A3A3A982AA837E
:1039030089088A09750A00780812089A7C237D00C1
:1039130012501D121AFD74031208CC80027E1AEE97
:10392300F90261BEF583E0F88A828B83A3A3227434
:10393300F51203B7EAFEEBFF8E828F83A3A3A3A343
:10394300A3A3A3A3E09008C3125F009008DE125E56
:10395300E69008BE125F059003D3F0F91219779031
:1039630003D3E06018EE2404FAE43FFB7950121904
:103973005FEE2406FAE43FFB79E112195F9003D26C
:10398300122CDE6004740180027400900334125E12
:10399300EC12089A7C0B7D007A357B03121AFD74B6
:1039A300031208CCEE2418F508E43FF50978081251
:1039B300089A7C0B7D007A407B030261B674F71290
:1039C30003B7EAFEEBFF8E828F83A3E070061250EB
:1039D3001D1213B38E828F83742C12470612151592
:1039E3000247A274F71203B7EAFEEBFF9003321209
:1039F3004DB3600D12501D900332E4F0A3F0121B7F
:103A0300B18E828F8374081247061223070247A2DE
:103A130074F61203B79003D2E06013900334E0709E
:103A23000D123A34121365EA4B6003121449025B18
:103A3300609008BEE0FB9008DEE0FA9008C3E0F96E
:103A43002274F41203B774E7120960EAFEEBFF7500
:103A53000B018E828F83A3A3A3A3A3A3A3E0A2E25C
:103A63005068EE242BF582E43F126682123B021269
:103A73001371E9705590809AE064017005750B002D
:103A83008048123B0A12089A7C0B7D0074111209BC
:103A93003A121AFD74031208CC12154BE9FA740E8C
:103AA30012093288088909780812089E750830754A
:103AB3000900780812089E1236DE1206E01257F645
:103AC300790112156974061208CC85188285198349
:103AD3007410123655120B8AAA82AB83121C9512EC
:103AE30036DE125822740B120B8A124D0B740D1210
:103AF3000B8AE50B1245791223077419022CEAEE9F
:103B03002413FAE43FFB22EE2408125EF422C0825F
:103B1300C0839003D3E060031215BD0244E8C08262
:103B2300C0839003CA7411F0A37403F0A37415F057
:103B3300A37403F0A37421F0A37403F0901D927493
:103B430027F0A3742AF09003B47447F0A37413F01E
:103B5300900356747DF0A37413F09003587483F0AC
:103B6300A37413F09003AFE044028001E4F0024435
:103B7300E8C082C083EAFCEBFD7903024B84C08278
:103B8300C083EAFCEBFD7905024B84C082C08379D4
:103B930008025CF1C082C08374FE12096090035E68
:103BA3007431F0A37414F0900360742BF0A37414B5
:103BB300F0800D7A4B7B03121B4512456F121539AA
:103BC30090034B124DB370EB90034D124DB3600F46
:103BD3007A4D7B03121B4512456F12153980E9900C
:103BE300034BE4F0A3F0900351122CC17402800242
:103BF30074111208CC0244E874F61203B7E9FF7497
:103C03005429F582E4342CF583E493FEFA7B001205
:103C13001B1BEA4B6011EA2E124D018A828B83A390
:103C2300A3A3A3E4F0802C7A027B00121B1BEA4BB4
:103C3300601D743E2FF582E4342CF583E4938A826D
:103C43008B83F0A3741AF09003AAE0F9121B277A6E
:103C5300007B00025B60E9FC740629F8EAA2E050ED
:103C63001EE875F00A84E5F0F96014740A28C39914
:103C7300F8E9C394054004740A28F8740B28F8EC97
:103C8300C3941340047A1480027A06EA2879002444
:103C930009F85001097A0A7B00120267E8F9020861
:103CA3007EC082C0839003AFE05402600A12230DEA
:103CB300E960047901800279000244E8C082C0838C
:103CC3009003AFE054026016900351E0700C124D64
:103CD300B0600BE0C812424D5004790180027900B4
:103CE3000244E8C082C083908097E0F8900353E0D9
:103CF300C3985005121B1B80047A007B000244E822
:103D0300C082C08312153979000244E874F71203A4
:103D1300B774FE120960851882851983EAF0A3EB54
:103D2300123E7EA3A3A3A3A3E0600A14606024FE53
:103D33006069023DFF9008C3E0640F601812150F1D
:103D4300E9701285188285198312502090035A1244
:103D530043171224B09008EBE0C0E0851882851960
:103D630083124AE2D0E0123E7E7414126019126686
:103D7300847A4D7B03121B3FA8A8C2AF900353E084
:103D830004125036792012150374020236EE851898
:103D930082851983125C26741580D0851882851953
:103DA30083123E61A3A3E06053851882851983E0E3
:103DB3002402F8A3E03400F988828983126457E06F
:103DC300C0E0851882851983E0FCA3E0CC2406F5C6
:103DD30082E43CF583D0E0125862888289831250D2
:103DE3003085188285198312414985188285198384
:103DF3006013123E666005123E6E4043AA18AB196B
:103E03001215398084123E6660F2123E6E501C1207
:103E1300425DFA851882851983123E68F8747F1211
:103E23004CFC342CF583E4936A601485188285195D
:103E330083123E66640870C412425D640870BD124A
:103E4300425D14123E86240AC0E0851882851983D8
:103E5300124317D0E0123E8604023D6EE0F8A3122F
:103E63004B2F22E0F8A3E0123E8D2285188285199C
:103E730083125833123E8EC3940A22123E98F5835E
:103E8300888222123E98123E8D22C82406F582E4CF
:103E930038F583E02212601DE0F8A3E022C082C05F
:103EA30083900362124DB36008125C271224B08022
:103EB3000279000244E874F71203B7EAFEEBFF123B
:103EC3002E847401F0EE2430F582E43FF58312551D
:103ED30090122E5E243212439CC0E0EE2413F5822E
:103EE300E43FF583D0E0F0EE243312439CC0E0EED0
:103EF3002414F582E43FF583D0E0F0EE242CF58220
:103F0300E43FF5831206E0123F2DEE242E12439C6C
:103F1300F912156374021208CCE9F5087007EEFA7A
:103F2300EFFB121449A9080247A2EE2423FCE43F45
:103F3300FD22C082C08312150FE96004792080023C
:103F430079010244E8C082C083EA12412B123FEC9C
:103F5300D2E0023B70C082C083123FE6640170115D
:103F6300123FF1400C8A828B83A3E0F9121509807A
:103F73006FEA2410123FE9A2E650128A828B83A3D0
:103F8300E0F990035C1243171224B08053123FE60A
:103F93006401700D123FF150088A828B8374308064
:103FA300368A828B83A3E0641B8A828B83700474BA
:103FB300228024A3E0700D123FE6F8745F124CFCDC
:103FC300342C800B123FE6F8743E124CFC342CF573
:103FD30083E4938A828B83F09003AAE0F9121B2770
:103FE3000244E8EA240DF582E43BF583E022EA1279
:103FF30041553BF583E0A2E32274F71203B7E9FED0
:10400300124DB07003024122EE6011741B6E7013E7
:10401300E0C8124125640570030240ED125C16E40A
:104023000240F174E96E7062124141700B12231366
:10403300E9600512415B606279EE1218E190035466
:1040430012413E900354603B12415E900354700B47
:1040530012413E14F0121A97024122124149C2E75B
:104063001242691241256403700C12582C12412B21
:10407300123E93D2E2F079ED1218E112413112248B
:10408300B08075125C1974E9806474E16E703E123D
:104093002313E9605512415B70509008E5E0C0E0DE
:1040A30012582C2412F582E438F583D0E0F09008FE
:1040B300D4E0C0E0900354123E5F123E5FD0E0F0C4
:1040C3009008D4E004F07901121A7F8052741C6EB8
:1040D3007018900354125020900364124317122453
:1040E300B0900354E4F0A3F08035125C16EEF09028
:1040F300035412502012143712582C1257FEE05456
:104103008060109008EBE0F912199B9008EAE0F93F
:1041130012198F900354E4F0A3F0791012150302DF
:1041230047A2240D123E90222411F582E42290032B
:1041330054125024900358125C2022E0F8A3E0C8E4
:104143002412123E9022E0F8A3E0C8124155123E19
:1041530093222410F582E422900354125833125808
:1041630002E054042274F41203B7750A00750B00BD
:10417300A2AFE433FFC2AF124DB060030242251277
:1041830043141224B0E94410F890034B80098508C6
:104193000A85090B1242401242557003024225124E
:1041A30033AA586870E8780A12089EAC08AD097AF9
:1041B3004B7B03121B5174021208CC900354E50885
:1041C300F0A3E50912426912424D405D900352E0AB
:1041D30014F0EFA2E092AF900354E0240EF8A3E0B2
:1041E3003400F9880889098882F5831250209003E6
:1041F30054124263F91213FBE990034FF012427118
:10420300E05480900354602612582F2413123E90DA
:10421300F912199B12582C2414123E90F912198F7B
:104223008018EFA2E092AF801190035180A1124158
:1042330049A2E1B3E433F9121A7F022CEDE5082415
:10424300FBF582E50934FFF583222411123E90A287
:10425300E72212625BE508450922851882851983E6
:104263001230ACA3E022F090035412583322A3E49B
:10427300F08508828509832274F71203B7EAFEEBFF
:10428300FF121533EE241012439CA2E3400C124399
:1042930099640170059080958003908096E0F9EE13
:1042A300FCEFFD7A4B7B03121B57E96046EEFAEFF6
:1042B300FB90035E1243171224B0EE240E12439CAC
:1042C30054047020A8A8C2AF900352E00412501601
:1042D300FAE8A2E792AF124306A3E0540170211259
:1042E3001443801CEEFAEFFB90035612431712247B
:1042F300B0800D8E828F83A374F112470612143798
:104303000247A212430A22EE240EF582E43FF5830C
:1043130022900360125C2022C082C08312144302E5
:1043230044E874F71203B7EAFEEBFF79009003AF9A
:10433300E05402700CEE243012439C540460027962
:10434300E89003AFE05460700CEE243012439C54A9
:1043530002600279E88E828F83A3A3A3A3E0F8907F
:10436300809BE0C398500279E8EE242E12439C70A0
:104373000CEE242B12439C700479F5800BE9700535
:10438300121425E9F9E96007EEFAEFFB12150902A9
:1043930047A234FFF509EE240DF582E43FF583E0EF
:1043A30022C082C0838A828B83740DF0122307029A
:1043B30044E8C082C0838A828B83E4F0A3F0EA24BA
:1043C30030123FE954049080957012E0F890035244
:1043D300E0C398401279F11215090244E8E0F8901D
:1043E3000351E0C39850EE9003AAE0F9121B278013
:1043F300E974F61203B7E9FE244CFAE43400FB1225
:104403001B1BEA4B6012EE8A828B83A3A3A3A3F048
:10441300EA244C124D0180047A007B00025B60C0E9
:1044230082C0839003667491F0A37414F0A374C1E3
:10443300F0A37414F0A37497F0A37414F0A3749D01
:10444300F0A37414F0A374BBF0A37414F0A374AFBB
:10445300F0A37414F0A374A9F0A37414F0A374C7A5
:10446300F0A37414F0A374CDF0A37414F0A374D365
:10447300F0A37414F0A374DFF0A37414F0A374A373
:10448300F0A37414F0A3748BF0A37414F0A37485D5
:10449300F0A37414F090038274B5F0A37414F0A322
:1044A30074D9F0A37414F0A374F3F0A37415F0A3F8
:1044B30074E5F0A37414F0A374EBF0A37414F090F8
:1044C30003A6E4F09003A9F09003921244DF740270
:1044D300F090039B1244DF7401023B707403F0A35A
:1044E3007415F0A322D083D08202087E74F51203E0
:1044F300B774F11209608518828519837402F07408
:1045030001120B8AE9F060047AFF7BFF7402120B3D
:104513008A12503075089E750903750A00780812CF
:10452300089A7C0B7D007407120B8AAA82AB831254
:104533001AFD74031208CCAA18AB19122307740FBF
:104543000261BB74F71203B774FD12096085188208
:10455300851983740AF07401120B8AE9F07402124C
:104563000B8AEA1245791223070236EC85188285F5
:104573001983EAF0A3EBF0AA18AB192274F612031D
:10458300B774F7120960EAFEEBFF1245CF122E7CD7
:1045930074021246F7AA18AB19121C95EE242E12B8
:1045A3002E4A24301255FD12089E740212094279D4
:1045B300831A1AEFFB12156374021208CCE9F5088B
:1045C3007007EEFAEFFB121449025B5912430A74A7
:1045D300012274F01203B71260A4120B1B7808793E
:1045E3000C1202C878081208967A957B030230CF22
:1045F30074F41203B774C61209609008C3E0640F21
:104603006010851882851983742E12457912151549
:1046130080277A8C7B0312163B122CFB12026F88C5
:10462300088909E4F50AF50B78081208967A8C7B59
:104633000312162F74041208CC743A022CEA74F590
:104643001203B7EAFEEBFF8E828F83A3E0F86003C9
:104653000246E0EE242D12439C64026007E06403EB
:10466300600278E8EE2423F582E43FF583122CF40C
:10467300400478E8806AE87064EE2423FAE43FFBA0
:1046830079E112195FEE242EFAE43FFB79501219F7
:104693005FEE242D12439C6402700E1257EC1258E5
:1046A300229008D2124D0B80129008D274FEF0A310
:1046B300041246F77AC97B08121CA1EE2418123B98
:1046C3000D12089A7C0B7D007A9E7B03121AFD74EF
:1046D300031208CCEEFAEFFB12147FE9F8E860113D
:1046E300E88E828F83A3125A4E741712470612154F
:1046F300150261BEF0EE2425FCE43FFD228E828F7D
:10470300837429F0EEFAEFFB2274F61203B774F701
:104713001209609003A9E0703B7401F0F9121A4981
:10472300AA18AB1912154575089E75090378081266
:10473300089E750801750900780812089E9008D82C
:104743001206E074061209427A0379051215697498
:10475300061208CC025B5B74F71203B7EAFEEBFFA9
:104763007901121A4F8E828F83E064207004A37440
:10477300EBF09003A9E0A2E25003C2E2F0E0A2E171
:1047830050081249A4121479800C8E828F83742AE4
:104793001247061215158007EEFAEFFB1215B17FCB
:1047A3000102061374F41203B774FE120960EAFEE1
:1047B300EBFF7901121A4F7A8C7B0312163B7A9521
:1047C3007B0312163B124AEE851882851983124B1E
:1047D30022E0F50B700FAA18AB19795312195F1267
:1047E300624B12195F123B0A12089A7C0B7D007A06
:1047F3009E7B03121AFD74031208CC851882851957
:1048030083125020A90B1214739003A9E0A2E15064
:104813000C7A008E828F83A3E0F91214799003A996
:10482300E4F07402022CEA74F71203B7EAFEEBFF1A
:104833008E828F83A374EBF09003A9E0A2E150076B
:104843007A0079EB121479EEFAEFFB1214AF0247F8
:10485300A274F71203B7EAFEEBFF7901121A4F7A3B
:104863008C7B0312163B7A957B0312163B9003A6AF
:10487300E4F09003A9F07AFF7BFF8E828F83A3E09D
:10488300F91214730247A274F71203B7EAFEEBFF9F
:104893001214A902479B74F71203B7EAFEEBFF79E0
:1048A30001121A4F8E828F83A3A3A3A3E060047423
:1048B30000800274EB1248EB5003C2E2F0E0A2E185
:1048C30050081249ED1214798014A2E050108E8220
:1048D3008F83742AF0A374EB124706121515EEFAB0
:1048E300EFFB12145B0247A28E828F83A3F0900327
:1048F300A9E0A2E22274F61203B7EAFEEBFF9003EB
:10490300A9E0D2E1F07901121A498E828F83A3E0E4
:10491300703C12154BE9FAEE240DF508E43FF50956
:10492300780812089E750801750900780812089E18
:104933001249621206E0EE2402FCE43FFD790512FF
:10494300156974061208CCE98E828F83A3F08E82D8
:104953008F83A3E060067A00F9121479025B601278
:10496300496622EE240BF582E43FF5832274F712A5
:1049730003B7EAFEEBFF7901121A4F8E828F83E0B1
:1049830064207004A374EBF09003A9E0A2E2500347
:10499300C2E2F0E0A2E150061249A41214790247E0
:1049A300A2C2E1F07A008E828F83A3E0F92274F72A
:1049B3001203B7EAFEEBFF7901121A4F7A8C7B03DD
:1049C30012163B8E828F83A3A3A3A3E0600474001B
:1049D300800274EB1248EB5003C2E2F0E0A2E15014
:1049E300061249ED1214790248E1C2E1123855A3C7
:1049F300E0A2E4E433FA8E828F83A3E0F92274F712
:104A03001203B7EAFEEBFF7901121A4F8E828F83EE
:104A1300A374EB1248F05003C2E2F0E0A2E15006A7
:104A23001249A41214790247A274F71203B7EAFEDB
:104A3300EBFF7A8C7B0312163BEEFAEFFB1214D3D7
:104A430002479B74F71203B7EAFEEBFF7A8C7B03F2
:104A530012163BEEFAEFFB1214D30247A274F712BD
:104A630003B774EF120960EAFEEBFF1257F67AC937
:104A73007B08121C8FE9606285188285198374098B
:104A8300F07401120B8A74EFF0124AEEF8740212FA
:104A93000B8AE8124B22A3A3E0C0E07404120B8A32
:104AA300D0E0124B0F640870158E828F83A3A3127C
:104AB3004AE2E0C0E07405120B8AD0E08006740578
:104AC300120B8AE41258557406120B8AAA82AB831E
:104AD30012157BAA18AB1912230774110236EE12B2
:104AE30058332407F582E438F58322124B04FB8AFA
:104AF300828B8312582688828983E0FCA3E0F9EC39
:104B030022EE2402F8E43FF9E8FAE922124B1322D9
:104B1300124B18E022F08E828F83A3A3A3A322F06B
:104B2300A3E9125844124B2C22E0F8A3125C27A3EA
:104B3300A322C082C0831215BD0244E8C082C08391
:104B43009003C67466F0A37403F0A37482F0A37495
:104B530003F0901D8C7463F0A37429F0A374C5F063
:104B6300A37429F09003B2746DF0A37414F090034E
:104B7300AFE04401023B70C082C083EAFCEBFD79E5
:104B8300021215210244E874F61203B774FE1209E7
:104B9300609003AB124DB360077AAB7B03121539F8
:104BA3009003B1E4F0901BB5124DB360268007AAC1
:104BB30018AB191215399003AAE0F9121B338A08AE
:104BC3008B09A808A909851882851983124D0BE85A
:104BD3004970DC7402025B5D74F71203B7E9FA7B78
:104BE300009003AAE0F9121B5D0247A274F71203B7
:104BF300B774F0120960EAFCEBFDE9FE8C828D8349
:104C0300E0F87475124CFC342CF583E493C0E07423
:104C130001120B8AD0E0F0640B700DEE8C828D8351
:104C2300A3F012159F024CEFE07003024CEF640CEB
:104C33006003024CE0741A6E700B7404120B8AE466
:104C4300F0A3024CDF7404120B8AECF0A3EDF0EC3A
:104C5300242F124CF4C0E07403120B8AD0E0125DCF
:104C6300B7120B437406120B8A120B378C828D8397
:104C7300125819740A120B8A124D0BEC240E124CA3
:104C8300F454106009851882851983E48013EC2499
:104C930012124CF4F89008E5E0C398851882851940
:104CA30083F0E0C0E0740C120B8AD0E0F0EC241522
:104CB300124CF4C0E0740D120B8AD0E0F0EC241611
:104CC300124CF4C0E0740E120B8AD0E0F0EC2417FF
:104CD300124CF4C0E0740F120B8AD0E0F07402128D
:104CE3000B8AEEF0740112093A122307741002368C
:104CF300EEF582E43DF583E02228F582E422F8E430
:104D03003BF98A828B83A3A3E8F0A3E9F022C08254
:104D1300C0839003B1E064037004790180027900D9
:104D23000244E874F71203B79003B1E0124D9D12E9
:104D330066828A828B83E0C2E7F025E0F8EC124CAE
:104D4300FC3DF583A3E493FE124D9DF583124DB311
:104D53006005EE9003B1F08A828B83E0124DA9ECDB
:104D630028F582ED39F583E493FCC4540F25E0F86C
:104D730074C0124CFC3403F583124DB37005121545
:104D83008D8014EC540F25E0FCE82CF582E439F512
:104D9300831243171224B00247A2124DA9748A2822
:104DA300F582741D392225E0F8E433F92290035487
:104DB300125826E8492274F11203B774FE120960EF
:104DC300890AEAFEEBFF124EB5FA7B00121B1B8A1F
:104DD300088B09EA450960388A828B83E50AF0A3C8
:104DE300E4F08E0C8F0DF50E780C12089AA80A12B7
:104DF3004EC2EA2402FAE43509FB121AFD740312C7
:104E030008CCAA08AB099003AAE0F9121B27801269
:104E1300851882851983E50AF0791AAA18AB191245
:104E2300150974021208CC022F5A74F21203B774D4
:104E3300FE120960890B8A088B09124EB5F50AFA2E
:104E43007B00121B1B8A0C8B0DAE0CAF0DEE4F605B
:104E53004A8E828F83E50BF0A3E4F0A80AEE28F8CC
:104E6300E43FF98E828F83124D098E828F83A3A331
:104E7300A3A3E4F0F50A780812089AA80B124EC20D
:104E830012326D121AFD74031208CCEEFAEFFB9086
:104E930003AAE0F9121B277900801485188285196B
:104EA30083E50BF0791AAA18AB19121509791A02BE
:104EB3003780744929F582E4342CF583E493227412
:104EC3006A28F582E4342CF583E493FC7D0022C048
:104ED30082C083E99003AA023B7074F61203B7748D
:104EE300FE120960EAFEEBFFEE542070378040A803
:104EF300A8C2AF900353E014125016F508E8A2E7D6
:104F030092AF8A828B8312500D9003AD12503012F0
:104F13001515851882851983E0641560077AAD7BC2
:104F2300031215397A4D7B03121B45EA4B70C0EF10
:104F330054807012801C9003AD1250301215157AF4
:104F4300AD7B031215399003AAE0F9121B33EA4B28
:104F530070E4EE5410600E851882851983742D1247
:104F63004579121515EEA2E0500E85188285198336
:104F73007424124579121515EE5402600E851882B9
:104F83008519837425124579121515EE5404600EA4
:104F93008518828519837426124579121515EE54E6
:104FA30008600E85188285198374281245791215B5
:104FB30015EE544060107401120B8A126018742CA1
:104FC300124579121515EE548060107401120B8A84
:104FD300126018742F1245791215159003AB124DF8
:104FE300B36020A8A8C2AF9003AB1250209003ABCC
:104FF300E4F0A312503612502F1215157AAD7B032D
:105003001215397A007B00024BD6E0851882851988
:1050130083F022F0E8A2E7E4332290033212502413
:1050230022E0FAA3E0FB22A3A3A3A3A3A3EAF0A392
:10503300EBF022125016FEE8A2E792AF22C082C024
:10504300839003AD125822EA687002EB69700790EF
:1050530003ADE4F0A3F00244E874F71203B7EAFEE9
:10506300EBFFEE4F7003121743A2AFE433F508C210
:10507300AF8E828F83124DB36028E824FBFAE934A4
:10508300FFFB9003AD126684E86C7002E96D700754
:105093009003ADE4F0A3F08E828F83E4F0A3F012CB
:1050A3001BB102353FC082C0839003D47481F0A347
:1050B3007415F0A37493F0A37415F0A37499F0A37B
:1050C3007415F0A37455F0A37414F0A3749FF0A3A4
:1050D3007415F0A3744FF0A37414F0A3745BF0A3DE
:1050E3007414F09003E274CFF0A37415F0A374A5C5
:1050F300F0A37415F0A374ABF0A37415F0A374B705
:10510300F0A37415F0A374B1F0A37415F09003D356
:10511300023B6FC082C0839008D2E064FE7003A399
:10512300E0F470097CC97D08121C9580158A828B76
:1051330083A3A3A3A3A3A3A3A37402F0125298125D
:105143004D0B0244E8C082C0839008DCC3E094FEA8
:10515300A3E094FF40047903800279020244E8C08B
:1051630082C0831252A38C828D8312525868703985
:10517300740268701C8A828B831251B1E0687029B3
:105183008A828B83A31251B1A3E068701C790180DA
:105193001A7403687013EC2405FC50010DEA24050E
:1051A300FA50010B121C9B800279000244E8A3A36E
:1051B300A3A3A3E0F88C828D83A3A3A3A3A3227448
:1051C300F61203B77E00740A120B8AE012524CFFE8
:1051D3008A828B83A3A3A3A3A3A3A3A3E06F706477
:1051E30074026F704E8A828B83C082C083888289E7
:1051F30083A3A3A3A3A3E0F50888828983A3A3A31E
:10520300A3A3A3E0FBAA08D083D082E06A7003A320
:10521300E06B703088828983A3A3A3E0FA88828934
:1052230083A3A3A3A3E0F9EA6C7002E96D70157E72
:1052330001801174036F700CE82405FCE439FD123E
:105243001C9BE9FEEEF9025B60F8A3E0F988828912
:105253008312525822A3E01313543F540322C082F3
:10526300C0838A828B83A3A3A3A3A3A3A3A3E06482
:10527300027014125298E0687003A3E06970047915
:1052830001800F7900800BEAFCEBFD7AC97B0812E1
:105293001C8F0244E89008D21258268A828B8322FC
:1052A3008A828B83125258F82274EC1203B7EAFEF7
:1052B300EBFF8C128D13750A008C828D83A3A3A33D
:1052C300A3A3A3A3A3E0F510E9A2E75008750CFF7D
:1052D300750DFF80069008D81254E8E9C2E7F5116E
:1052E300EE240E12439C542060071254C9740880A4
:1052F300041254C9E41254F0540460071254D174D4
:105303008080051254D174101254F05410600612A8
:1053130054A1E4800B9008E5E0C0E01254A1D0E072
:105323001254F0A2E05003750A205408600674106A
:10533300450AF50A8E828F83A3A3E024FFF508A311
:10534300E0124395C39402E0400B640B6005E01444
:1053530012327D7403450AF50A750B009008F8E0D4
:10536300640170118E828F83A3A3A3A3E0C3946708
:105373004003750B1085110E750F00740E780E1215
:105383000A17E50F450BF50B7414120B8AE0F50EA3
:10539300A3E0F50F74026511700E9008DD12327CE4
:1053A3009008DC1254DF80137403651170121254D9
:1053B300AB7CEC7D08AA08FB121CA11254B8800434
:1053C300E5116028E5106014E50E650C7004E50F27
:1053D300650D70087440450AF50A801085088285BA
:1053E3000983E50D1254F6E50C12328385100C7512
:1053F3000D00740A780C120A17E50D450BF50B74B2
:105403000265107015851282851383A312327C8581
:1054130012828513831254DF801374036510701294
:105423001254ABAC12AD13AA08FB121CA11254B850
:105433008004E5106010850882850983E50F125406
:10544300F6E50E123283A808A909E824FFF508E956
:1054530012439570059008C880039008D4E0FA04BD
:10546300F0EA88828983124273E50B1254F6E50A47
:10547300F0EE2404F8E43FF9122F69AC088A828B1A
:1054830083E0F50A88828983E0250AC39C12584089
:10549300ECF0A3E5091259BCE4F0F9022CCEEE249A
:1054A30012F582E43FF58322E50824F9F508E509BE
:1054B30034FFF509221254BC22E50824FFF508E560
:1054C3000934FFF50922EE1241553FF583221254A8
:1054D300D522EE2411F582E43FF58322E08508828C
:1054E300850983F022E0F50CA3E0F50D22F01243C9
:1054F3000AE022123287850882F5832274EE1203B2
:10550300B7890A8A0B8C108D11750C1A7416120B3D
:105513008A126257AA08FB1213F58A0E8B0FAE0E7E
:10552300AF0FEE4F60607414120B8A125590E8F0BF
:10553300A3E9122E7FE50AF085080C85090D750E87
:1055430000780C12089A123269121AFD74031208B9
:10555300CC7412120B8A1206E0AC10AD11A90BEE3B
:10556300FAEFFB12156374021208CCE9F50C7016FE
:10557300E50A24F960031470061232F0D2E5F0EE66
:10558300FAEFFB121449A90C7F0A020613125C35C9
:1055930012430B2274F61203B774F7120960EAFE82
:1055A300EBFF7801EE242F12439C6002780512432F
:1055B30006E8122E7C74041255F0121C95EE242C6E
:1055C300122E4A242E1255FD12089E74021209420D
:1055D30079031A1AEFFB12156374021208CCE9F56A
:1055E300087007EEFAEFFB121449025B59F0EE2440
:1055F30023FCE43FFDAA18AB1922F582E43FF583AF
:10560300122F94124B1304F078082274F21203B78A
:105613008A088B09ECFEEDFF8A828B837405F0EE1A
:10562300243212439C8A828B83A3A3F0EA2403F5DA
:105633000AE43509F50B850A82F5831254E81257FB
:10564300EC120B43E50C12412B350DF583120B378E
:105653001257F6AA0CAB0D121C95850A82850B8393
:10566300125C2DFAA3E0FB88828983A3A3A31250C3
:105673002AEE242F12439CC0E012580BD0E012589C
:105683004A2415F582E438F583E412584A1257FE8A
:10569300E4125855850A82850B83E02416FAA3E0A9
:1056A3003400FB12157B8E828F83A3A3A3A3A3A332
:1056B300A3E0C0E0850A82850B8312582F240DF5E1
:1056C30082E438F583D0E0125839FAA3E0FB850A67
:1056D30082850B83125822E8240BFCE439FD8A826D
:1056E3008B83E08C828D83F0A3E4125862E0F50B88
:1056F3008C828D83A3E0450B125840A3E0FCA30AE0
:105703000AAB83A2E7E433C0E0E8240FF582E4396F
:10571300F583D0E0F074075C6004780180027800C0
:1057230075F00374075CA428F8EA28FAE43BFBE568
:10573300082405F8E43509F98A828B83122F941221
:10574300586285088285098312502A88828983E0FA
:10575300F50A540725E0FCE50AC4540F5407F50A7B
:10576300750B007403780A120A17EC250AF8EA2865
:10577300F8E43BF9850882850983A3A3A3A3A3A324
:10578300A3A3A3E8F0A3E9124B0FFA8E828F83A39E
:10579300A3E02AFAA3E03400FBC3EA98EB99403074
:1057A3008E828F83A3A3E0F8850882850983A3A350
:1057B300A3A3A3A3A3A3A3E0FA8E828F83A3A3A38C
:1057C300A3E0C39A28850882850983A3A3A3801035
:1057D300850882850983A3A3A3A3A3A3A31242716C
:1057E300A3A3A3A3A3F0023785EE2425F582E43F08
:1057F300F58322EE2413FCE43FFD221258022224F7
:105803000EF582E438F5832212580F22E82410F5AE
:1058130082E439F58322A3A3A3A3A3A3A3A3A3127F
:10582300582622E0F8A3E0F92290035412583322B9
:10583300E0F8A3E0C822125A4EA3A3E02212584470
:1058430022F08A828B8322F0850A82850B83125889
:105853003322F012585A22EE2408FCE43FFD2212B0
:105863005844A3AA82AB832274F51203B78C088D24
:1058730009750A00780812089A7C0B7D000261B64C
:1058830002087EC082C08379181215090244E8C059
:1058930082C0838A828B83E0C3940B5003121587E3
:1058A3000244E8C082C083791980DE74F71203B71B
:1058B300EAFEEBFF9003AB124DB360109003AB1203
:1058C30050201215937AAB7B03121539EEFAEFFBD6
:1058D3001215339003ABEEF0A3EF8002F0A3F002B6
:1058E30047A274F71203B774DE120960EAFEEBFFF6
:1058F3008E828F83E024FD601124FE601524ED6009
:105903000924FA600D14600A803D7416120B8AE4B0
:1059130080077416120B8A7401F0123F2D740B1258
:105923000B8AAA82AB83121CA17413120B8A12591D
:10593300C1120B8A124D0B740A120B8A1259CD1223
:105943000B8A124D0B80427416120B8A7402F012EA
:1059530057F6740B120B8AAA82AB83121CA1741321
:10596300120B8A1259C1120B8A124D0B740A120BB5
:105973008A1259CD120B8A122E5E12585B741712BB
:105983000B8AAA82AB8312157B85188285198374CF
:105993000B1259BCE0C0E07401120B8AD0E012581C
:1059A300557417120B8AAA82AB8312157BAA18AB04
:1059B3001912230774220236EE125A4EA3227403DD
:1059C300F09008DC1258267402227402F09008D872
:1059D30012582674142274F71203B7EAFEEBFF8EF3
:1059E300828F83A3E0F5087036EE242C125A54708C
:1059F30003A3E06960037508E8EE2423FAE43FFBA0
:105A030012155DE96032EE242FF582E43FF583E45D
:105A1300F0E508700AEEFAEFFB12156FE9F508E5F9
:105A23000860128E828F83A3E508125A4E741912EE
:105A330047061215150247A2EE242F12439C60D18C
:105A43009003D2E070CB7508E880D8F08E828F8304
:105A530022F582E43FF5831258269008D8E06822A5
:105A6300C082C08374F11209607402120B8A740439
:105A7300125840A3E0C0E07403120B8AD0E0F0EAAE
:105A8300242CF582E43BF583125822740D120B8A01
:105A9300124D0BEA2423FCE43BFD7404120B8AAA87
:105AA30082AB83121C957404120B8AAA82AB8312F5
:105AB300155DE9600E125AD312195F9008D274FF74
:105AC300F0A3F0740212093A122307740F023BF594
:105AD30085188285198374FFF0A3F0AA18AB19798E
:105AE300532274F61203B774E81209608A088B090B
:105AF3007402120B8A7403F0EA2413FEE43509FFDF
:105B0300EEFCEFFD7404120B8AAA82AB83121CA174
:105B13001233BFC0E0740C120B8AD0E0F0E5082406
:105B230008FCE43509FD740D120B8AAA82AB8312BB
